S00E00006C69676874732E737265638B
S11300000C9446000C9458000C9458000C9458001E
S11300100C9458000C9458000C9458000C945800FC
S11300200C9458000C9458000C9458000C945800EC
S11300300C9458000C9458000C9458000C945800DC
S11300400C9486000C9458000C9458000C9458009E
S11300500C9458000C9458000C9458000C945800BC
S11300600C9458000C9458000C9458000C945800AC
S11300700C9458000C9458000C9458000C9458009C
S11300800C9458000C9458000C94580011241FBE72
S1130090CFEFD0E1DEBFCDBF11E0A0E0B1E001C001
S11300A01D92A230B107E1F70E940F010C942201C6
S11300B00C94000040B32091000130910101220F03
S11300C0331F306E50E002C0559547958A95E2F78C
S11300D041705527242B352B3093010120930001C7
S11300E081E02115304F09F080E0089587B38760DF
S11300F087BBBB988DB180658DB9709A089587B719
S1130100816087BF83B7856083BF08951F920F9274
S11301100FB60F9211240BB60F922F933F934F9368
S11301205F936F937F938F939F93AF93BF93CF937B
S1130130DF93EF93FF9385B3ABB3B8B38F7009F438
S1130140FFCFF3B31BBA84E690E0CFE3DFE121975E
S1130150F1F700C0000001970097B9F78BB38095C1
S11301608BBB2FE030E005C021503109211531054A
S113017039F183B38F2785BBE0B38091000190915F
S11301800101880F991F906E4E2F417050E0842B0F
S1130190952B90930101809300018115904F21F7D5
S11301A088B390B3692F617070E0706E7093010131
S11301B06093000188BB2150310921153105C9F62E
S11301C088B382958F7088BB88B38F5F88BB88B3F0
S11301D0E0E18E9FC00111249B2F9F70982B98BB48
S11301E0F5BBABBB9A9B18C085B3880F85BBFF9149
S11301F0EF91DF91CF91BF91AF919F918F917F91BB
S11302006F915F914F913F912F910F900BBE0F9083
S11302100FBE0F901F90189581E085BBE8CF87B77C
S1130220816087BF83B7856083BF8FEF84BB8ABB40
S113023012B887BB81E085BB18BA8FE08BBB13B8BB
S10B02407894FFCFF894FFCF7E
S9030000FC
